{
  "contractName": "Crowdsale",
  "abi": [
    {
      "constant": true,
      "inputs": [],
      "name": "startTime",
      "outputs": [
        {
          "name": "",
          "type": "uint256"
        }
      ],
      "payable": false,
      "stateMutability": "view",
      "type": "function"
    },
    {
      "constant": true,
      "inputs": [],
      "name": "saleEnd",
      "outputs": [
        {
          "name": "",
          "type": "uint256"
        }
      ],
      "payable": false,
      "stateMutability": "view",
      "type": "function"
    },
    {
      "inputs": [
        {
          "name": "_totalSupply",
          "type": "uint256"
        },
        {
          "name": "_exchangeRate",
          "type": "uint256"
        },
        {
          "name": "_saleTime",
          "type": "uint256"
        }
      ],
      "payable": false,
      "stateMutability": "nonpayable",
      "type": "constructor"
    },
    {
      "payable": true,
      "stateMutability": "payable",
      "type": "fallback"
    },
    {
      "constant": false,
      "inputs": [],
      "name": "forwardFunds",
      "outputs": [
        {
          "name": "",
          "type": "bool"
        }
      ],
      "payable": false,
      "stateMutability": "nonpayable",
      "type": "function"
    },
    {
      "constant": false,
      "inputs": [],
      "name": "buy",
      "outputs": [
        {
          "name": "",
          "type": "bool"
        }
      ],
      "payable": true,
      "stateMutability": "payable",
      "type": "function"
    },
    {
      "constant": false,
      "inputs": [],
      "name": "refund",
      "outputs": [],
      "payable": true,
      "stateMutability": "payable",
      "type": "function"
    }
  ],
  "bytecode": "0x6060604052341561000f57600080fd5b60405160608061133c83398101604052808051906020019091908051906020019091908051906020019091905050336000806101000a81548173ffffffffffffffffffffffffffffffffffffffff021916908373ffffffffffffffffffffffffffffffffffffffff16021790555082610086610105565b80828152602001915050604051809103906000f08015156100a657600080fd5b600260006101000a81548173ffffffffffffffffffffffffffffffffffffffff021916908373ffffffffffffffffffffffffffffffffffffffff1602179055508160038190555042600581905550804201600681905550505050610115565b6040516108ab80610a9183390190565b61096d806101246000396000f30060606040526004361061006d576000357c0100000000000000000000000000000000000000000000000000000000900463ffffffff168063590e1ae31461006f57806378e97925146100795780639d735286146100a2578063a6f2ae3a146100cf578063c10b9358146100f1575b005b61007761011a565b005b341561008457600080fd5b61008c610477565b6040518082815260200191505060405180910390f35b34156100ad57600080fd5b6100b561047d565b604051808215151515815260200191505060405180910390f35b6100d76105da565b604051808215151515815260200191505060405180910390f35b34156100fc57600080fd5b61010461093b565b6040518082815260200191505060405180910390f35b6006544210156104755734600260009054906101000a900473ffffffffffffffffffffffffffffffffffffffff1673ffffffffffffffffffffffffffffffffffffffff166370a08231336000604051602001526040518263ffffffff167c0100000000000000000000000000000000000000000000000000000000028152600401808273ffffffffffffffffffffffffffffffffffffffff1673ffffffffffffffffffffffffffffffffffffffff168152602001915050602060405180830381600087803b15156101ea57600080fd5b6102c65a03f115156101fb57600080fd5b505050604051805190501015151561021257600080fd5b3373ffffffffffffffffffffffffffffffffffffffff166108fc349081150290604051600060405180830381858888f19350505050151561025257600080fd5b600260009054906101000a900473ffffffffffffffffffffffffffffffffffffffff1673ffffffffffffffffffffffffffffffffffffffff1663095ea7b33360035434026000604051602001526040518363ffffffff167c0100000000000000000000000000000000000000000000000000000000028152600401808373ffffffffffffffffffffffffffffffffffffffff1673ffffffffffffffffffffffffffffffffffffffff16815260200182815260200192505050602060405180830381600087803b151561032357600080fd5b6102c65a03f1151561033457600080fd5b5050506040518051905050600260009054906101000a900473ffffffffffffffffffffffffffffffffffffffff1673ffffffffffffffffffffffffffffffffffffffff166323b872dd303360035434026000604051602001526040518463ffffffff167c0100000000000000000000000000000000000000000000000000000000028152600401808473ffffffffffffffffffffffffffffffffffffffff1673ffffffffffffffffffffffffffffffffffffffff1681526020018373ffffffffffffffffffffffffffffffffffffffff1673ffffffffffffffffffffffffffffffffffffffff1681526020018281526020019350505050602060405180830381600087803b151561044457600080fd5b6102c65a03f1151561045557600080fd5b505050604051805190505060035434026004600082825403925050819055505b565b60055481565b60006006544211156105d2576000809054906101000a900473ffffffffffffffffffffffffffffffffffffffff1673ffffffffffffffffffffffffffffffffffffffff166108fc600260009054906101000a900473ffffffffffffffffffffffffffffffffffffffff1673ffffffffffffffffffffffffffffffffffffffff166370a08231336000604051602001526040518263ffffffff167c0100000000000000000000000000000000000000000000000000000000028152600401808273ffffffffffffffffffffffffffffffffffffffff1673ffffffffffffffffffffffffffffffffffffffff168152602001915050602060405180830381600087803b151561058957600080fd5b6102c65a03f1151561059a57600080fd5b505050604051805190509081150290604051600060405180830381858888f1935050505015156105c957600080fd5b600190506105d7565b600090505b90565b600060065442101561093857600454600260009054906101000a900473ffffffffffffffffffffffffffffffffffffffff1673ffffffffffffffffffffffffffffffffffffffff166318160ddd6000604051602001526040518163ffffffff167c0100000000000000000000000000000000000000000000000000000000028152600401602060405180830381600087803b151561067757600080fd5b6102c65a03f1151561068857600080fd5b50505060405180519050111561093757600160009054906101000a900473ffffffffffffffffffffffffffffffffffffffff1673ffffffffffffffffffffffffffffffffffffffff16631e2231436000604051602001526040518163ffffffff167c0100000000000000000000000000000000000000000000000000000000028152600401602060405180830381600087803b151561072657600080fd5b6102c65a03f1151561073757600080fd5b5050506040518051905073ffffffffffffffffffffffffffffffffffffffff163373ffffffffffffffffffffffffffffffffffffffff16148015610822575060018060009054906101000a900473ffffffffffffffffffffffffffffffffffffffff1673ffffffffffffffffffffffffffffffffffffffff16633e3c9eae6000604051602001526040518163ffffffff167c0100000000000000000000000000000000000000000000000000000000028152600401602060405180830381600087803b151561080557600080fd5b6102c65a03f1151561081657600080fd5b50505060405180519050115b1561093157600260009054906101000a900473ffffffffffffffffffffffffffffffffffffffff1673ffffffffffffffffffffffffffffffffffffffff1663a9059cbb3360035434026000604051602001526040518363ffffffff167c0100000000000000000000000000000000000000000000000000000000028152600401808373ffffffffffffffffffffffffffffffffffffffff1673ffffffffffffffffffffffffffffffffffffffff16815260200182815260200192505050602060405180830381600087803b15156108f857600080fd5b6102c65a03f1151561090957600080fd5b5050506040518051905050600354340260046000828254019250508190555060019050610936565b600090505b5b5b90565b600654815600a165627a7a723058206f8c797c61f876c03162ccd33357723541f987fc6811a63725d4067ee2b84f9400296060604052341561000f57600080fd5b6040516020806108ab833981016040528080519060200190919050508060008190555050610869806100426000396000f300606060405260043610610083576000357c0100000000000000000000000000000000000000000000000000000000900463ffffffff168063095ea7b31461009057806318160ddd146100ea57806323b872dd1461011357806328ab4f761461018c57806370a08231146101ba578063a9059cbb14610207578063dd62ed3e14610261575b341561008e57600080fd5b005b341561009b57600080fd5b6100d0600480803573ffffffffffffffffffffffffffffffffffffffff169060200190919080359060200190919050506102cd565b604051808215151515815260200191505060405180910390f35b34156100f557600080fd5b6100fd6103bf565b6040518082815260200191505060405180910390f35b341561011e57600080fd5b610172600480803573ffffffffffffffffffffffffffffffffffffffff1690602001909190803573ffffffffffffffffffffffffffffffffffffffff169060200190919080359060200190919050506103c5565b604051808215151515815260200191505060405180910390f35b341561019757600080fd5b6101b8600480803590602001909190803515159060200190919050506105e6565b005b34156101c557600080fd5b6101f1600480803573ffffffffffffffffffffffffffffffffffffffff16906020019091905050610614565b6040518082815260200191505060405180910390f35b341561021257600080fd5b610247600480803573ffffffffffffffffffffffffffffffffffffffff1690602001909190803590602001909190505061065d565b604051808215151515815260200191505060405180910390f35b341561026c57600080fd5b6102b7600480803573ffffffffffffffffffffffffffffffffffffffff1690602001909190803573ffffffffffffffffffffffffffffffffffffffff169060200190919050506107b6565b6040518082815260200191505060405180910390f35b600081600260003373ffffffffffffffffffffffffffffffffffffffff1673ffffffffffffffffffffffffffffffffffffffff16815260200190815260200160002060008573ffffffffffffffffffffffffffffffffffffffff1673ffffffffffffffffffffffffffffffffffffffff168152602001908152602001600020819055508273ffffffffffffffffffffffffffffffffffffffff163373ffffffffffffffffffffffffffffffffffffffff167f8c5be1e5ebec7d5bd14f71427d1e84f3dd0314c0f7b2291e5b200ac8c7c3b925846040518082815260200191505060405180910390a36001905092915050565b60005481565b600081600260008673ffffffffffffffffffffffffffffffffffffffff1673ffffffffffffffffffffffffffffffffffffffff16815260200190815260200160002060008573ffffffffffffffffffffffffffffffffffffffff1673ffffffffffffffffffffffffffffffffffffffff168152602001908152602001600020541015151561045257600080fd5b81600160008673ffffffffffffffffffffffffffffffffffffffff1673ffffffffffffffffffffffffffffffffffffffff1681526020019081526020016000206000828254039250508190555081600160008573ffffffffffffffffffffffffffffffffffffffff1673ffffffffffffffffffffffffffffffffffffffff1681526020019081526020016000206000828254039250508190555081600260008673ffffffffffffffffffffffffffffffffffffffff1673ffffffffffffffffffffffffffffffffffffffff16815260200190815260200160002060008573ffffffffffffffffffffffffffffffffffffffff1673ffffffffffffffffffffffffffffffffffffffff168152602001908152602001600020600082825403925050819055508273ffffffffffffffffffffffffffffffffffffffff168473ffffffffffffffffffffffffffffffffffffffff167fddf252ad1be2c89b69c2b068fc378daa952ba7f163c4a11628f55a4df523b3ef846040518082815260200191505060405180910390a3600190509392505050565b801561060057816000808282540192505081905550610610565b8160008082825403925050819055505b5050565b6000600160008373ffffffffffffffffffffffffffffffffffffffff1673ffffffffffffffffffffffffffffffffffffffff168152602001908152602001600020549050919050565b600081600160003373ffffffffffffffffffffffffffffffffffffffff1673ffffffffffffffffffffffffffffffffffffffff16815260200190815260200160002054101515156106ad57600080fd5b81600160003373ffffffffffffffffffffffffffffffffffffffff1673ffffffffffffffffffffffffffffffffffffffff1681526020019081526020016000206000828254039250508190555081600160008573ffffffffffffffffffffffffffffffffffffffff1673ffffffffffffffffffffffffffffffffffffffff168152602001908152602001600020600082825401925050819055508273ffffffffffffffffffffffffffffffffffffffff163373ffffffffffffffffffffffffffffffffffffffff167fddf252ad1be2c89b69c2b068fc378daa952ba7f163c4a11628f55a4df523b3ef846040518082815260200191505060405180910390a36001905092915050565b6000600260008473ffffffffffffffffffffffffffffffffffffffff1673ffffffffffffffffffffffffffffffffffffffff16815260200190815260200160002060008373ffffffffffffffffffffffffffffffffffffffff1673ffffffffffffffffffffffffffffffffffffffff168152602001908152602001600020549050929150505600a165627a7a72305820b9206df614a45f8054e89ff97ebaa1b00dec4239aed60d67ca7ba84670e402640029",
  "source": "pragma solidity ^0.4.15;\n\nimport './Queue.sol';\nimport './Token.sol';\n\n/**\n * @title Crowdsale\n * @dev Contract that deploys `Token.sol`\n * Is timelocked, manages buyer queue, updates balances on `Token.sol`\n */\n\ncontract Crowdsale {\n    address owner;\n    Queue buyers;\n\n    Token token;\n    //amount of tokens 1 wei is worth\n    uint256 exchangeRate;\n    uint256 totalSold;\n\n    uint public startTime;\n    uint public saleEnd;\n\n    function Crowdsale(uint256 _totalSupply, uint256 _exchangeRate, uint _saleTime) public {\n        owner = msg.sender;\n        token = new Token(_totalSupply);\n        exchangeRate = _exchangeRate;\n        startTime = now;\n        saleEnd = now + _saleTime;\n    }\n\n\n    //Forwards all funds to owner after sale is over\n    function forwardFunds() returns(bool) {\n        if (now > saleEnd) {\n            owner.transfer(token.balanceOf(msg.sender));\n            return true;\n        }\n        return false;\n    }\n\n    //Mints new tokens\n    function mint() private {\n        token.changeSupply(1, true);\n    }\n\n    //burns tokens not sold\n    function burn() private {\n        uint256 unsold = token.totalSupply() - totalSold;\n        token.changeSupply(unsold, false);\n    }\n\n    modifier saleOpen {if (now < saleEnd) _;}\n\n    modifier inStock {if (token.totalSupply() > totalSold) _;}\n\n    //buy tokens directly from the contract and as long as the sale has not ended,\n    //if they are first in the queue and there is someone waiting line behind them\n    //returns true if successful, false if not\n    function buy() payable external saleOpen inStock returns(bool) {\n        if (msg.sender == buyers.getFirst() && buyers.qsize() > 1) {\n            token.transfer(msg.sender, msg.value * exchangeRate);\n            totalSold += msg.value * exchangeRate;\n            return true;\n        }\n        return false;\n    }\n\n    function refund() payable external saleOpen {\n        require(token.balanceOf(msg.sender) >= msg.value);\n        msg.sender.transfer(msg.value);\n        token.approve(msg.sender, msg.value * exchangeRate);\n        token.transferFrom(this, msg.sender, msg.value * exchangeRate);\n        totalSold -= msg.value * exchangeRate;\n    }\n\n    function () payable {}\n}\n",
  "sourcePath": "/Users/rachelye/Desktop/blockchaindev/sp18-midterm-p1/contracts/Crowdsale.sol",
  "compiler": {
    "name": "solc",
    "version": "0.4.19+commit.c4cbbb05.Emscripten.clang"
  },
  "schemaVersion": "1.0.1",
  "updatedAt": "2018-03-08T22:14:23.686Z"
}