{
  "contractName": "Crowdsale",
  "abi": [
    {
      "constant": true,
      "inputs": [],
      "name": "startTime",
      "outputs": [
        {
          "name": "",
          "type": "uint256"
        }
      ],
      "payable": false,
      "stateMutability": "view",
      "type": "function"
    },
    {
      "constant": true,
      "inputs": [],
      "name": "saleEnd",
      "outputs": [
        {
          "name": "",
          "type": "uint256"
        }
      ],
      "payable": false,
      "stateMutability": "view",
      "type": "function"
    },
    {
      "inputs": [
        {
          "name": "_totalSupply",
          "type": "uint256"
        },
        {
          "name": "_saleTime",
          "type": "uint256"
        }
      ],
      "payable": false,
      "stateMutability": "nonpayable",
      "type": "constructor"
    },
    {
      "payable": true,
      "stateMutability": "payable",
      "type": "fallback"
    },
    {
      "constant": false,
      "inputs": [],
      "name": "buy",
      "outputs": [
        {
          "name": "",
          "type": "bool"
        }
      ],
      "payable": true,
      "stateMutability": "payable",
      "type": "function"
    },
    {
      "constant": false,
      "inputs": [],
      "name": "refund",
      "outputs": [],
      "payable": true,
      "stateMutability": "payable",
      "type": "function"
    }
  ],
  "bytecode": "0x6060604052341561000f57600080fd5b604051604080610d0483398101604052808051906020019091908051906020019091905050336000806101000a81548173ffffffffffffffffffffffffffffffffffffffff021916908373ffffffffffffffffffffffffffffffffffffffff1602179055508161007d6100f4565b80828152602001915050604051809103906000f080151561009d57600080fd5b600260006101000a81548173ffffffffffffffffffffffffffffffffffffffff021916908373ffffffffffffffffffffffffffffffffffffffff160217905550426005819055508042016006819055505050610104565b604051610844806104c083390190565b6103ad806101136000396000f300606060405260043610610062576000357c0100000000000000000000000000000000000000000000000000000000900463ffffffff168063590e1ae31461006457806378e979251461006e578063a6f2ae3a14610097578063c10b9358146100b9575b005b61006c6100e2565b005b341561007957600080fd5b6100816100e4565b6040518082815260200191505060405180910390f35b61009f6100ea565b604051808215151515815260200191505060405180910390f35b34156100c457600080fd5b6100cc61037b565b6040518082815260200191505060405180910390f35b565b60055481565b600060065442101561037857600160009054906101000a900473ffffffffffffffffffffffffffffffffffffffff1673ffffffffffffffffffffffffffffffffffffffff16631e2231436000604051602001526040518163ffffffff167c0100000000000000000000000000000000000000000000000000000000028152600401602060405180830381600087803b151561018457600080fd5b6102c65a03f1151561019557600080fd5b5050506040518051905073ffffffffffffffffffffffffffffffffffffffff163373ffffffffffffffffffffffffffffffffffffffff16148015610280575060018060009054906101000a900473ffffffffffffffffffffffffffffffffffffffff1673ffffffffffffffffffffffffffffffffffffffff16633e3c9eae6000604051602001526040518163ffffffff167c0100000000000000000000000000000000000000000000000000000000028152600401602060405180830381600087803b151561026357600080fd5b6102c65a03f1151561027457600080fd5b50505060405180519050115b1561037357600260009054906101000a900473ffffffffffffffffffffffffffffffffffffffff1673ffffffffffffffffffffffffffffffffffffffff1663a9059cbb3360035434026000604051602001526040518363ffffffff167c0100000000000000000000000000000000000000000000000000000000028152600401808373ffffffffffffffffffffffffffffffffffffffff1673ffffffffffffffffffffffffffffffffffffffff16815260200182815260200192505050602060405180830381600087803b151561035657600080fd5b6102c65a03f1151561036757600080fd5b50505060405180519050505b600090505b90565b600654815600a165627a7a72305820c1dbb4f22217675eccd6b5e247e12ca9d07aee9019a3d3aa882cee3e7daeabc500296060604052341561000f57600080fd5b604051602080610844833981016040528080519060200190919050508060008190555050610802806100426000396000f300606060405260043610610078576000357c0100000000000000000000000000000000000000000000000000000000900463ffffffff168063095ea7b31461008557806318160ddd146100df57806323b872dd1461010857806370a0823114610181578063a9059cbb146101ce578063dd62ed3e14610228575b341561008357600080fd5b005b341561009057600080fd5b6100c5600480803573ffffffffffffffffffffffffffffffffffffffff16906020019091908035906020019091905050610294565b604051808215151515815260200191505060405180910390f35b34156100ea57600080fd5b6100f2610386565b6040518082815260200191505060405180910390f35b341561011357600080fd5b610167600480803573ffffffffffffffffffffffffffffffffffffffff1690602001909190803573ffffffffffffffffffffffffffffffffffffffff1690602001909190803590602001909190505061038c565b604051808215151515815260200191505060405180910390f35b341561018c57600080fd5b6101b8600480803573ffffffffffffffffffffffffffffffffffffffff169060200190919050506105ad565b6040518082815260200191505060405180910390f35b34156101d957600080fd5b61020e600480803573ffffffffffffffffffffffffffffffffffffffff169060200190919080359060200190919050506105f6565b604051808215151515815260200191505060405180910390f35b341561023357600080fd5b61027e600480803573ffffffffffffffffffffffffffffffffffffffff1690602001909190803573ffffffffffffffffffffffffffffffffffffffff1690602001909190505061074f565b6040518082815260200191505060405180910390f35b600081600260003373ffffffffffffffffffffffffffffffffffffffff1673ffffffffffffffffffffffffffffffffffffffff16815260200190815260200160002060008573ffffffffffffffffffffffffffffffffffffffff1673ffffffffffffffffffffffffffffffffffffffff168152602001908152602001600020819055508273ffffffffffffffffffffffffffffffffffffffff163373ffffffffffffffffffffffffffffffffffffffff167f8c5be1e5ebec7d5bd14f71427d1e84f3dd0314c0f7b2291e5b200ac8c7c3b925846040518082815260200191505060405180910390a36001905092915050565b60005481565b600081600260008673ffffffffffffffffffffffffffffffffffffffff1673ffffffffffffffffffffffffffffffffffffffff16815260200190815260200160002060008573ffffffffffffffffffffffffffffffffffffffff1673ffffffffffffffffffffffffffffffffffffffff168152602001908152602001600020541015151561041957600080fd5b81600160008673ffffffffffffffffffffffffffffffffffffffff1673ffffffffffffffffffffffffffffffffffffffff1681526020019081526020016000206000828254039250508190555081600160008573ffffffffffffffffffffffffffffffffffffffff1673ffffffffffffffffffffffffffffffffffffffff1681526020019081526020016000206000828254039250508190555081600260008673ffffffffffffffffffffffffffffffffffffffff1673ffffffffffffffffffffffffffffffffffffffff16815260200190815260200160002060008573ffffffffffffffffffffffffffffffffffffffff1673ffffffffffffffffffffffffffffffffffffffff168152602001908152602001600020600082825403925050819055508273ffffffffffffffffffffffffffffffffffffffff168473ffffffffffffffffffffffffffffffffffffffff167fddf252ad1be2c89b69c2b068fc378daa952ba7f163c4a11628f55a4df523b3ef846040518082815260200191505060405180910390a3600190509392505050565b6000600160008373ffffffffffffffffffffffffffffffffffffffff1673ffffffffffffffffffffffffffffffffffffffff168152602001908152602001600020549050919050565b600081600160003373ffffffffffffffffffffffffffffffffffffffff1673ffffffffffffffffffffffffffffffffffffffff168152602001908152602001600020541015151561064657600080fd5b81600160003373ffffffffffffffffffffffffffffffffffffffff1673ffffffffffffffffffffffffffffffffffffffff1681526020019081526020016000206000828254039250508190555081600160008573ffffffffffffffffffffffffffffffffffffffff1673ffffffffffffffffffffffffffffffffffffffff168152602001908152602001600020600082825401925050819055508273ffffffffffffffffffffffffffffffffffffffff163373ffffffffffffffffffffffffffffffffffffffff167fddf252ad1be2c89b69c2b068fc378daa952ba7f163c4a11628f55a4df523b3ef846040518082815260200191505060405180910390a36001905092915050565b6000600260008473ffffffffffffffffffffffffffffffffffffffff1673ffffffffffffffffffffffffffffffffffffffff16815260200190815260200160002060008373ffffffffffffffffffffffffffffffffffffffff1673ffffffffffffffffffffffffffffffffffffffff168152602001908152602001600020549050929150505600a165627a7a72305820e063bb1a6ff29cb83ae14aced45e5c7d90a03b302170c3848266f22907a6712c0029",
  "source": "pragma solidity ^0.4.15;\n\nimport './Queue.sol';\nimport './Token.sol';\n\n/**\n * @title Crowdsale\n * @dev Contract that deploys `Token.sol`\n * Is timelocked, manages buyer queue, updates balances on `Token.sol`\n */\n\ncontract Crowdsale {\n    address owner;\n    Queue buyers;\n\n    Token token;\n    //amount of tokens 1 wei is worth\n    uint exchangeRate;\n    uint totalSold;\n\n    uint public startTime;\n    uint public saleEnd;\n\n    function Crowdsale(uint _totalSupply, uint _saleTime) public {\n        owner = msg.sender;\n        token = new Token(_totalSupply);\n        startTime = now;\n        saleEnd = now + _saleTime;\n    }\n\n\n    //Forwards all funds to owner after sale is over\n    function forwardFunds() private {\n    }\n\n    //Mints new tokens\n    function mint() private {\n\n    }\n\n    //burns tokens not sold\n    function burn() private {\n    }\n\n    modifier saleOpen {if (now < saleEnd) _;}\n\n    //buy tokens directly from the contract and as long as the sale has not ended,\n    //if they are first in the queue and there is someone waiting line behind them\n    //returns true if successful, false if not\n    function buy() payable external saleOpen returns(bool) {\n        if (msg.sender == buyers.getFirst() && buyers.qsize() > 1) {\n            token.transfer(msg.sender, msg.value * exchangeRate);\n        }\n        return false;\n    }\n\n    function refund() payable external saleOpen {\n\n    }\n\n    function () payable {}\n}\n",
  "sourcePath": "/home/jakub/bdev-repo/sp18-midterm-p1/contracts/Crowdsale.sol",
  "compiler": {
    "name": "solc",
    "version": "0.4.19+commit.c4cbbb05.Emscripten.clang"
  },
  "schemaVersion": "1.0.1",
  "updatedAt": "2018-03-08T20:50:25.501Z"
}