{
  "contractName": "Crowdsale",
  "abi": [
    {
      "constant": true,
      "inputs": [],
      "name": "startTime",
      "outputs": [
        {
          "name": "",
          "type": "uint256"
        }
      ],
      "payable": false,
      "stateMutability": "view",
      "type": "function"
    },
    {
      "constant": true,
      "inputs": [],
      "name": "saleEnd",
      "outputs": [
        {
          "name": "",
          "type": "uint256"
        }
      ],
      "payable": false,
      "stateMutability": "view",
      "type": "function"
    },
    {
      "inputs": [
        {
          "name": "_totalSupply",
          "type": "uint256"
        },
        {
          "name": "_exchangeRate",
          "type": "uint256"
        },
        {
          "name": "_saleTime",
          "type": "uint256"
        }
      ],
      "payable": false,
      "stateMutability": "nonpayable",
      "type": "constructor"
    },
    {
      "payable": true,
      "stateMutability": "payable",
      "type": "fallback"
    },
    {
      "constant": false,
      "inputs": [],
      "name": "forwardFunds",
      "outputs": [
        {
          "name": "",
          "type": "bool"
        }
      ],
      "payable": false,
      "stateMutability": "nonpayable",
      "type": "function"
    },
    {
      "constant": false,
      "inputs": [],
      "name": "buy",
      "outputs": [
        {
          "name": "",
          "type": "bool"
        }
      ],
      "payable": true,
      "stateMutability": "payable",
      "type": "function"
    },
    {
      "constant": false,
      "inputs": [],
      "name": "refund",
      "outputs": [],
      "payable": true,
      "stateMutability": "payable",
      "type": "function"
    }
  ],
  "bytecode": "0x6060604052341561000f57600080fd5b60405160608061139283398101604052808051906020019091908051906020019091908051906020019091905050336000806101000a81548173ffffffffffffffffffffffffffffffffffffffff021916908373ffffffffffffffffffffffffffffffffffffffff16021790555082610086610105565b80828152602001915050604051809103906000f08015156100a657600080fd5b600260006101000a81548173ffffffffffffffffffffffffffffffffffffffff021916908373ffffffffffffffffffffffffffffffffffffffff1602179055508160038190555042600581905550804201600681905550505050610115565b60405161094980610a4983390190565b610925806101246000396000f30060606040526004361061006d576000357c0100000000000000000000000000000000000000000000000000000000900463ffffffff168063590e1ae31461006f57806378e97925146100795780639d735286146100a2578063a6f2ae3a146100cf578063c10b9358146100f1575b005b61007761011a565b005b341561008457600080fd5b61008c61042f565b6040518082815260200191505060405180910390f35b34156100ad57600080fd5b6100b5610435565b604051808215151515815260200191505060405180910390f35b6100d7610592565b604051808215151515815260200191505060405180910390f35b34156100fc57600080fd5b6101046108f3565b6040518082815260200191505060405180910390f35b600060065442101561042c5734600260009054906101000a900473ffffffffffffffffffffffffffffffffffffffff1673ffffffffffffffffffffffffffffffffffffffff166370a08231336000604051602001526040518263ffffffff167c0100000000000000000000000000000000000000000000000000000000028152600401808273ffffffffffffffffffffffffffffffffffffffff1673ffffffffffffffffffffffffffffffffffffffff168152602001915050602060405180830381600087803b15156101ec57600080fd5b6102c65a03f115156101fd57600080fd5b505050604051805190501015151561021457600080fd5b600260009054906101000a900473ffffffffffffffffffffffffffffffffffffffff1673ffffffffffffffffffffffffffffffffffffffff166370a08231336000604051602001526040518263ffffffff167c0100000000000000000000000000000000000000000000000000000000028152600401808273ffffffffffffffffffffffffffffffffffffffff1673ffffffffffffffffffffffffffffffffffffffff168152602001915050602060405180830381600087803b15156102d957600080fd5b6102c65a03f115156102ea57600080fd5b5050506040518051905090503373ffffffffffffffffffffffffffffffffffffffff166108fc6003548381151561031d57fe5b049081150290604051600060405180830381858888f19350505050151561034357600080fd5b600260009054906101000a900473ffffffffffffffffffffffffffffffffffffffff1673ffffffffffffffffffffffffffffffffffffffff1663410085df33836040518363ffffffff167c0100000000000000000000000000000000000000000000000000000000028152600401808373ffffffffffffffffffffffffffffffffffffffff1673ffffffffffffffffffffffffffffffffffffffff16815260200182815260200192505050600060405180830381600087803b151561040757600080fd5b6102c65a03f1151561041857600080fd5b505050806004600082825403925050819055505b50565b60055481565b600060065442111561058a576000809054906101000a900473ffffffffffffffffffffffffffffffffffffffff1673ffffffffffffffffffffffffffffffffffffffff166108fc600260009054906101000a900473ffffffffffffffffffffffffffffffffffffffff1673ffffffffffffffffffffffffffffffffffffffff166370a08231336000604051602001526040518263ffffffff167c0100000000000000000000000000000000000000000000000000000000028152600401808273ffffffffffffffffffffffffffffffffffffffff1673ffffffffffffffffffffffffffffffffffffffff168152602001915050602060405180830381600087803b151561054157600080fd5b6102c65a03f1151561055257600080fd5b505050604051805190509081150290604051600060405180830381858888f19350505050151561058157600080fd5b6001905061058f565b600090505b90565b60006006544210156108f057600454600260009054906101000a900473ffffffffffffffffffffffffffffffffffffffff1673ffffffffffffffffffffffffffffffffffffffff166318160ddd6000604051602001526040518163ffffffff167c0100000000000000000000000000000000000000000000000000000000028152600401602060405180830381600087803b151561062f57600080fd5b6102c65a03f1151561064057600080fd5b5050506040518051905011156108ef57600160009054906101000a900473ffffffffffffffffffffffffffffffffffffffff1673ffffffffffffffffffffffffffffffffffffffff16631e2231436000604051602001526040518163ffffffff167c0100000000000000000000000000000000000000000000000000000000028152600401602060405180830381600087803b15156106de57600080fd5b6102c65a03f115156106ef57600080fd5b5050506040518051905073ffffffffffffffffffffffffffffffffffffffff163373ffffffffffffffffffffffffffffffffffffffff161480156107da575060018060009054906101000a900473ffffffffffffffffffffffffffffffffffffffff1673ffffffffffffffffffffffffffffffffffffffff16633e3c9eae6000604051602001526040518163ffffffff167c0100000000000000000000000000000000000000000000000000000000028152600401602060405180830381600087803b15156107bd57600080fd5b6102c65a03f115156107ce57600080fd5b50505060405180519050115b156108e957600260009054906101000a900473ffffffffffffffffffffffffffffffffffffffff1673ffffffffffffffffffffffffffffffffffffffff1663a9059cbb3360035434026000604051602001526040518363ffffffff167c0100000000000000000000000000000000000000000000000000000000028152600401808373ffffffffffffffffffffffffffffffffffffffff1673ffffffffffffffffffffffffffffffffffffffff16815260200182815260200192505050602060405180830381600087803b15156108b057600080fd5b6102c65a03f115156108c157600080fd5b50505060405180519050506003543402600460008282540192505081905550600190506108ee565b600090505b5b5b90565b600654815600a165627a7a7230582088f6c47e220fd35aa2251cd8ca87be81be2c98f157db74a6f501f8c5d35f028f00296060604052341561000f57600080fd5b604051602080610949833981016040528080519060200190919050508060008190555050610907806100426000396000f30060606040526004361061008e576000357c0100000000000000000000000000000000000000000000000000000000900463ffffffff168063095ea7b31461009b57806318160ddd146100f557806323b872dd1461011e57806328ab4f7614610197578063410085df146101c557806370a0823114610207578063a9059cbb14610254578063dd62ed3e146102ae575b341561009957600080fd5b005b34156100a657600080fd5b6100db600480803573ffffffffffffffffffffffffffffffffffffffff1690602001909190803590602001909190505061031a565b604051808215151515815260200191505060405180910390f35b341561010057600080fd5b61010861040c565b6040518082815260200191505060405180910390f35b341561012957600080fd5b61017d600480803573ffffffffffffffffffffffffffffffffffffffff1690602001909190803573ffffffffffffffffffffffffffffffffffffffff16906020019091908035906020019091905050610412565b604051808215151515815260200191505060405180910390f35b34156101a257600080fd5b6101c360048080359060200190919080351515906020019091905050610633565b005b34156101d057600080fd5b610205600480803573ffffffffffffffffffffffffffffffffffffffff16906020019091908035906020019091905050610661565b005b341561021257600080fd5b61023e600480803573ffffffffffffffffffffffffffffffffffffffff169060200190919050506106b2565b6040518082815260200191505060405180910390f35b341561025f57600080fd5b610294600480803573ffffffffffffffffffffffffffffffffffffffff169060200190919080359060200190919050506106fb565b604051808215151515815260200191505060405180910390f35b34156102b957600080fd5b610304600480803573ffffffffffffffffffffffffffffffffffffffff1690602001909190803573ffffffffffffffffffffffffffffffffffffffff16906020019091905050610854565b6040518082815260200191505060405180910390f35b600081600260003373ffffffffffffffffffffffffffffffffffffffff1673ffffffffffffffffffffffffffffffffffffffff16815260200190815260200160002060008573ffffffffffffffffffffffffffffffffffffffff1673ffffffffffffffffffffffffffffffffffffffff168152602001908152602001600020819055508273ffffffffffffffffffffffffffffffffffffffff163373ffffffffffffffffffffffffffffffffffffffff167f8c5be1e5ebec7d5bd14f71427d1e84f3dd0314c0f7b2291e5b200ac8c7c3b925846040518082815260200191505060405180910390a36001905092915050565b60005481565b600081600260008673ffffffffffffffffffffffffffffffffffffffff1673ffffffffffffffffffffffffffffffffffffffff16815260200190815260200160002060008573ffffffffffffffffffffffffffffffffffffffff1673ffffffffffffffffffffffffffffffffffffffff168152602001908152602001600020541015151561049f57600080fd5b81600160008673ffffffffffffffffffffffffffffffffffffffff1673ffffffffffffffffffffffffffffffffffffffff1681526020019081526020016000206000828254039250508190555081600160008573ffffffffffffffffffffffffffffffffffffffff1673ffffffffffffffffffffffffffffffffffffffff1681526020019081526020016000206000828254039250508190555081600260008673ffffffffffffffffffffffffffffffffffffffff1673ffffffffffffffffffffffffffffffffffffffff16815260200190815260200160002060008573ffffffffffffffffffffffffffffffffffffffff1673ffffffffffffffffffffffffffffffffffffffff168152602001908152602001600020600082825403925050819055508273ffffffffffffffffffffffffffffffffffffffff168473ffffffffffffffffffffffffffffffffffffffff167fddf252ad1be2c89b69c2b068fc378daa952ba7f163c4a11628f55a4df523b3ef846040518082815260200191505060405180910390a3600190509392505050565b801561064d5781600080828254019250508190555061065d565b8160008082825403925050819055505b5050565b80600160008473ffffffffffffffffffffffffffffffffffffffff1673ffffffffffffffffffffffffffffffffffffffff168152602001908152602001600020600082825403925050819055505050565b6000600160008373ffffffffffffffffffffffffffffffffffffffff1673ffffffffffffffffffffffffffffffffffffffff168152602001908152602001600020549050919050565b600081600160003373ffffffffffffffffffffffffffffffffffffffff1673ffffffffffffffffffffffffffffffffffffffff168152602001908152602001600020541015151561074b57600080fd5b81600160003373ffffffffffffffffffffffffffffffffffffffff1673ffffffffffffffffffffffffffffffffffffffff1681526020019081526020016000206000828254039250508190555081600160008573ffffffffffffffffffffffffffffffffffffffff1673ffffffffffffffffffffffffffffffffffffffff168152602001908152602001600020600082825401925050819055508273ffffffffffffffffffffffffffffffffffffffff163373ffffffffffffffffffffffffffffffffffffffff167fddf252ad1be2c89b69c2b068fc378daa952ba7f163c4a11628f55a4df523b3ef846040518082815260200191505060405180910390a36001905092915050565b6000600260008473ffffffffffffffffffffffffffffffffffffffff1673ffffffffffffffffffffffffffffffffffffffff16815260200190815260200160002060008373ffffffffffffffffffffffffffffffffffffffff1673ffffffffffffffffffffffffffffffffffffffff168152602001908152602001600020549050929150505600a165627a7a72305820c7f7ba823b0bbeab11c572b6ba7833c8849b972da41fd32d973fdd7044e9971c0029",
  "source": "pragma solidity ^0.4.15;\n\nimport './Queue.sol';\nimport './Token.sol';\n\n/**\n * @title Crowdsale\n * @dev Contract that deploys `Token.sol`\n * Is timelocked, manages buyer queue, updates balances on `Token.sol`\n */\n\ncontract Crowdsale {\n    address owner;\n    Queue buyers;\n\n    Token token;\n    //amount of tokens 1 wei is worth\n    uint256 exchangeRate;\n    uint256 totalSold;\n\n    uint public startTime;\n    uint public saleEnd;\n\n    function Crowdsale(uint256 _totalSupply, uint256 _exchangeRate, uint _saleTime) public {\n        owner = msg.sender;\n        token = new Token(_totalSupply);\n        exchangeRate = _exchangeRate;\n        startTime = now;\n        saleEnd = now + _saleTime;\n    }\n\n\n    //Forwards all funds to owner after sale is over\n    function forwardFunds() returns(bool) {\n        if (now > saleEnd) {\n            owner.transfer(token.balanceOf(msg.sender));\n            return true;\n        }\n        return false;\n    }\n\n    //Mints new tokens\n    function mint() private {\n        token.changeSupply(1, true);\n    }\n\n    //burns tokens not sold\n    function burn() private {\n        uint256 unsold = token.totalSupply() - totalSold;\n        token.changeSupply(unsold, false);\n    }\n\n    modifier saleOpen {if (now < saleEnd) _;}\n\n    modifier inStock {if (token.totalSupply() > totalSold) _;}\n\n    //buy tokens directly from the contract and as long as the sale has not ended,\n    //if they are first in the queue and there is someone waiting line behind them\n    //returns true if successful, false if not\n    function buy() payable external saleOpen inStock returns(bool) {\n        if (msg.sender == buyers.getFirst() && buyers.qsize() > 1) {\n            token.transfer(msg.sender, msg.value * exchangeRate);\n            totalSold += msg.value * exchangeRate;\n            return true;\n        }\n        return false;\n    }\n\n    function refund() payable external saleOpen {\n        require(token.balanceOf(msg.sender) >= msg.value);\n        uint256 refundAmount = token.balanceOf(msg.sender);\n        msg.sender.transfer(refundAmount / exchangeRate);\n        token.refund(msg.sender, refundAmount);\n        totalSold -= refundAmount;\n    }\n\n    function () payable {}\n}\n",
  "sourcePath": "/Users/rachelye/Desktop/blockchaindev/sp18-midterm-p1/contracts/Crowdsale.sol",
  "compiler": {
    "name": "solc",
    "version": "0.4.19+commit.c4cbbb05.Emscripten.clang"
  },
  "schemaVersion": "1.0.1",
  "updatedAt": "2018-03-08T23:32:26.222Z"
}