{
  "contractName": "Queue",
  "abi": [
    {
      "inputs": [
        {
          "name": "_startTime",
          "type": "uint256"
        },
        {
          "name": "_timeLimit",
          "type": "uint256"
        }
      ],
      "payable": false,
      "stateMutability": "nonpayable",
      "type": "constructor"
    },
    {
      "payable": false,
      "stateMutability": "nonpayable",
      "type": "fallback"
    },
    {
      "constant": true,
      "inputs": [],
      "name": "qsize",
      "outputs": [
        {
          "name": "",
          "type": "uint256"
        }
      ],
      "payable": false,
      "stateMutability": "view",
      "type": "function"
    },
    {
      "constant": true,
      "inputs": [],
      "name": "empty",
      "outputs": [
        {
          "name": "",
          "type": "bool"
        }
      ],
      "payable": false,
      "stateMutability": "view",
      "type": "function"
    },
    {
      "constant": true,
      "inputs": [],
      "name": "getFirst",
      "outputs": [
        {
          "name": "",
          "type": "address"
        }
      ],
      "payable": false,
      "stateMutability": "view",
      "type": "function"
    },
    {
      "constant": true,
      "inputs": [],
      "name": "checkPlace",
      "outputs": [
        {
          "name": "",
          "type": "uint8"
        }
      ],
      "payable": false,
      "stateMutability": "view",
      "type": "function"
    },
    {
      "constant": false,
      "inputs": [],
      "name": "checkTime",
      "outputs": [],
      "payable": false,
      "stateMutability": "nonpayable",
      "type": "function"
    },
    {
      "constant": false,
      "inputs": [],
      "name": "dequeue",
      "outputs": [],
      "payable": false,
      "stateMutability": "nonpayable",
      "type": "function"
    },
    {
      "constant": false,
      "inputs": [
        {
          "name": "addr",
          "type": "address"
        }
      ],
      "name": "enqueue",
      "outputs": [],
      "payable": false,
      "stateMutability": "nonpayable",
      "type": "function"
    }
  ],
  "bytecode": "0x606060405260056000806101000a81548160ff021916908360ff160217905550341561002a57600080fd5b6040516040806105e28339810160405280805190602001909190805190602001909190505060006002819055508160038190555080600481905550505061056c806100766000396000f300606060405260043610610083576000357c0100000000000000000000000000000000000000000000000000000000900463ffffffff1680631e223143146100905780633e3c9eae146100e55780638f807f6b1461010e578063957908d114610147578063ad7d59fc1461015c578063e0c6190d1461018b578063f2a75fe4146101a0575b341561008e57600080fd5b005b341561009b57600080fd5b6100a36101cd565b604051808273ffffffffffffffffffffffffffffffffffffffff1673ffffffffffffffffffffffffffffffffffffffff16815260200191505060405180910390f35b34156100f057600080fd5b6100f8610210565b6040518082815260200191505060405180910390f35b341561011957600080fd5b610145600480803573ffffffffffffffffffffffffffffffffffffffff1690602001909190505061021a565b005b341561015257600080fd5b61015a6102a1565b005b341561016757600080fd5b61016f610392565b604051808260ff1660ff16815260200191505060405180910390f35b341561019657600080fd5b61019e610435565b005b34156101ab57600080fd5b6101b361044e565b604051808215151515815260200191505060405180910390f35b6000600160008154811015156101df57fe5b906000526020600020900160009054906101000a900473ffffffffffffffffffffffffffffffffffffffff16905090565b6000600254905090565b6000809054906101000a900460ff1660ff16600254101561029e5760018054806001018281610249919061045a565b9160005260206000209001600083909190916101000a81548173ffffffffffffffffffffffffffffffffffffffff021916908373ffffffffffffffffffffffffffffffffffffffff1602179055506002819055505b50565b600080600190505b6002548160ff161015610362578180548060010182816102c9919061045a565b9160005260206000209001600060018460ff168154811015156102e857fe5b906000526020600020900160009054906101000a900473ffffffffffffffffffffffffffffffffffffffff16909190916101000a81548173ffffffffffffffffffffffffffffffffffffffff021916908373ffffffffffffffffffffffffffffffffffffffff1602179055505080806001019150506102a9565b816001908054610373929190610486565b5042600381905550600260008154809291906001900391905055505050565b600080600090505b6002548160ff1610156104305760018160ff168154811015156103b957fe5b906000526020600020900160009054906101000a900473ffffffffffffffffffffffffffffffffffffffff1673ffffffffffffffffffffffffffffffffffffffff163373ffffffffffffffffffffffffffffffffffffffff16141561042357600181019150610431565b808060010191505061039a565b5b5090565b6004546003540142111561044c5761044b6102a1565b5b565b60008060025414905090565b8154818355818115116104815781836000526020600020918201910161048091906104d8565b5b505050565b8280548282559060005260206000209081019282156104c75760005260206000209182015b828111156104c65782548255916001019190600101906104ab565b5b5090506104d491906104fd565b5090565b6104fa91905b808211156104f65760008160009055506001016104de565b5090565b90565b61053d91905b8082111561053957600081816101000a81549073ffffffffffffffffffffffffffffffffffffffff021916905550600101610503565b5090565b905600a165627a7a72305820fcdb40352c8abc1a88a0a5401f53d913aa1b76311966f9be5b46e16ac5aee5510029",
  "source": "pragma solidity ^0.4.15;\n\n/**\n * @title Queue\n * @dev Data structure contract used in `Crowdsale.sol`\n * Allows buyers to line up on a first-in-first-out basis\n * See this example: http://interactivepython.org/courselib/static/pythonds/BasicDS/ImplementingaQueueinPython.html\n */\n\ncontract Queue {\n\t/* State variables */\n\tuint8 size = 5;\n    address[] line;\n    uint256 numWaiting;\n    uint startTime;\n    uint timeLimit;\n\n\t/* Add events */\n\t// YOUR CODE HERE\n\n\n    function Queue(uint _startTime, uint _timeLimit) {\n        numWaiting = 0;\n        startTime = _startTime;\n        timeLimit = _timeLimit;\n    }\n\n\t/* Returns the number of people waiting in line */\n\tfunction qsize() constant returns(uint256) {\n\t\treturn numWaiting;\n\t}\n\n\t/* Returns whether the queue is empty or not */\n\tfunction empty() constant returns(bool) {\n\t  return numWaiting == 0;\n\t}\n\n\t/* Returns the address of the person in the front of the queue */\n\tfunction getFirst() constant returns(address) {\n\t  return line[0];\n\t}\n\n\t/* Allows `msg.sender` to check their position in the queue */\n\tfunction checkPlace() constant returns(uint8) {\n\t\tfor (uint8 i = 0; i < numWaiting; i++) {\n\t\t    if (msg.sender == line[i]) {\n\t\t        return i + 1;\n\t\t    }\n\t\t}\n\t}\n\n\t/* Allows anyone to expel the first person in line if their time\n\t * limit is up\n\t */\n\tfunction checkTime() {\n        if (now > startTime + timeLimit) {\n            dequeue();\n        }\n\t}\n\n\t/* Removes the first person in line; either when their time is up or when\n\t * they are done with their purchase\n\t */\n\tfunction dequeue() {\n        address[] newLine;\n        for (uint8 i = 1; i < numWaiting; i++) {\n            newLine.push(line[i]);\n        }\n        line = newLine;\n\t\tstartTime = now;\n        numWaiting--;\n\t}\n\n\t/* Places `addr` in the first empty position in the queue */\n\tfunction enqueue(address addr) {\n        if (numWaiting < size) {\n\t\t    numWaiting = line.push(addr);\n\t\t}\n\t}\n\n    function () {}\n}\n",
  "sourcePath": "/home/jakub/bdev-repo/sp18-midterm-p1/contracts/Queue.sol",
  "compiler": {
    "name": "solc",
    "version": "0.4.19+commit.c4cbbb05.Emscripten.clang"
  },
  "schemaVersion": "1.0.1",
  "updatedAt": "2018-03-08T20:50:25.502Z"
}