{
  "contractName": "Queue",
  "abi": [
    {
      "inputs": [
        {
          "name": "_startTime",
          "type": "uint256"
        },
        {
          "name": "_timeLimit",
          "type": "uint256"
        }
      ],
      "payable": false,
      "stateMutability": "nonpayable",
      "type": "constructor"
    },
    {
      "payable": false,
      "stateMutability": "nonpayable",
      "type": "fallback"
    },
    {
      "constant": true,
      "inputs": [],
      "name": "qsize",
      "outputs": [
        {
          "name": "",
          "type": "uint256"
        }
      ],
      "payable": false,
      "stateMutability": "view",
      "type": "function"
    },
    {
      "constant": true,
      "inputs": [],
      "name": "empty",
      "outputs": [
        {
          "name": "",
          "type": "bool"
        }
      ],
      "payable": false,
      "stateMutability": "view",
      "type": "function"
    },
    {
      "constant": true,
      "inputs": [],
      "name": "getFirst",
      "outputs": [
        {
          "name": "",
          "type": "address"
        }
      ],
      "payable": false,
      "stateMutability": "view",
      "type": "function"
    },
    {
      "constant": true,
      "inputs": [],
      "name": "checkPlace",
      "outputs": [
        {
          "name": "",
          "type": "uint8"
        }
      ],
      "payable": false,
      "stateMutability": "view",
      "type": "function"
    },
    {
      "constant": false,
      "inputs": [],
      "name": "checkTime",
      "outputs": [],
      "payable": false,
      "stateMutability": "nonpayable",
      "type": "function"
    },
    {
      "constant": false,
      "inputs": [],
      "name": "dequeue",
      "outputs": [
        {
          "name": "",
          "type": "address"
        }
      ],
      "payable": false,
      "stateMutability": "nonpayable",
      "type": "function"
    },
    {
      "constant": false,
      "inputs": [
        {
          "name": "addr",
          "type": "address"
        }
      ],
      "name": "enqueue",
      "outputs": [],
      "payable": false,
      "stateMutability": "nonpayable",
      "type": "function"
    }
  ],
  "bytecode": "0x606060405260056000806101000a81548160ff021916908360ff160217905550341561002a57600080fd5b604051604080610669833981016040528080519060200190919080519060200190919050506000600281905550816003819055508060048190555050506105f3806100766000396000f300606060405260043610610083576000357c0100000000000000000000000000000000000000000000000000000000900463ffffffff1680631e223143146100905780633e3c9eae146100e55780638f807f6b1461010e578063957908d114610147578063ad7d59fc1461019c578063e0c6190d146101cb578063f2a75fe4146101e0575b341561008e57600080fd5b005b341561009b57600080fd5b6100a361020d565b604051808273ffffffffffffffffffffffffffffffffffffffff1673ffffffffffffffffffffffffffffffffffffffff16815260200191505060405180910390f35b34156100f057600080fd5b6100f8610250565b6040518082815260200191505060405180910390f35b341561011957600080fd5b610145600480803573ffffffffffffffffffffffffffffffffffffffff1690602001909190505061025a565b005b341561015257600080fd5b61015a6102e1565b604051808273ffffffffffffffffffffffffffffffffffffffff1673ffffffffffffffffffffffffffffffffffffffff16815260200191505060405180910390f35b34156101a757600080fd5b6101af610418565b604051808260ff1660ff16815260200191505060405180910390f35b34156101d657600080fd5b6101de6104bb565b005b34156101eb57600080fd5b6101f36104d5565b604051808215151515815260200191505060405180910390f35b60006001600081548110151561021f57fe5b906000526020600020900160009054906101000a900473ffffffffffffffffffffffffffffffffffffffff16905090565b6000600254905090565b6000809054906101000a900460ff1660ff1660025410156102de576001805480600101828161028991906104e1565b9160005260206000209001600083909190916101000a81548173ffffffffffffffffffffffffffffffffffffffff021916908373ffffffffffffffffffffffffffffffffffffffff1602179055506002819055505b50565b600080600080600191505b6002548260ff1610156103a55782805480600101828161030c91906104e1565b9160005260206000209001600060018560ff1681548110151561032b57fe5b906000526020600020900160009054906101000a900473ffffffffffffffffffffffffffffffffffffffff16909190916101000a81548173ffffffffffffffffffffffffffffffffffffffff021916908373ffffffffffffffffffffffffffffffffffffffff1602179055505081806001019250506102ec565b600160008154811015156103b557fe5b906000526020600020900160009054906101000a900473ffffffffffffffffffffffffffffffffffffffff1690508260019080546103f492919061050d565b50426003819055506002600081548092919060019003919050555080935050505090565b600080600090505b6002548160ff1610156104b65760018160ff1681548110151561043f57fe5b906000526020600020900160009054906101000a900473ffffffffffffffffffffffffffffffffffffffff1673ffffffffffffffffffffffffffffffffffffffff163373ffffffffffffffffffffffffffffffffffffffff1614156104a9576001810191506104b7565b8080600101915050610420565b5b5090565b600454600354014211156104d3576104d16102e1565b505b565b60008060025414905090565b81548183558181151161050857818360005260206000209182019101610507919061055f565b5b505050565b82805482825590600052602060002090810192821561054e5760005260206000209182015b8281111561054d578254825591600101919060010190610532565b5b50905061055b9190610584565b5090565b61058191905b8082111561057d576000816000905550600101610565565b5090565b90565b6105c491905b808211156105c057600081816101000a81549073ffffffffffffffffffffffffffffffffffffffff02191690555060010161058a565b5090565b905600a165627a7a72305820b6eda9e298788a691d27a0525d1ed8bd3aa2de18ca3fd3023589f474fa2c9c960029",
  "source": "pragma solidity ^0.4.15;\n\n/**\n * @title Queue\n * @dev Data structure contract used in `Crowdsale.sol`\n * Allows buyers to line up on a first-in-first-out basis\n * See this example: http://interactivepython.org/courselib/static/pythonds/BasicDS/ImplementingaQueueinPython.html\n */\n\ncontract Queue {\n\t/* State variables */\n\tuint8 size = 5;\n    address[] line;\n    uint256 numWaiting;\n    uint startTime;\n    uint timeLimit;\n\n\t/* Add events */\n\t// YOUR CODE HERE\n\n\n    function Queue(uint _startTime, uint _timeLimit) {\n        numWaiting = 0;\n        startTime = _startTime;\n        timeLimit = _timeLimit;\n    }\n\n\t/* Returns the number of people waiting in line */\n\tfunction qsize() constant returns(uint256) {\n\t\treturn numWaiting;\n\t}\n\n\t/* Returns whether the queue is empty or not */\n\tfunction empty() constant returns(bool) {\n\t  return numWaiting == 0;\n\t}\n\n\t/* Returns the address of the person in the front of the queue */\n\tfunction getFirst() constant returns(address) {\n\t  return line[0];\n\t}\n\n\t/* Allows `msg.sender` to check their position in the queue */\n\tfunction checkPlace() constant returns(uint8) {\n\t\tfor (uint8 i = 0; i < numWaiting; i++) {\n\t\t    if (msg.sender == line[i]) {\n\t\t        return i + 1;\n\t\t    }\n\t\t}\n\t}\n\n\t/* Allows anyone to expel the first person in line if their time\n\t * limit is up\n\t */\n\tfunction checkTime() {\n        if (now > startTime + timeLimit) {\n            dequeue();\n        }\n\t}\n\n\t/* Removes the first person in line; either when their time is up or when\n\t * they are done with their purchase\n\t */\n\tfunction dequeue() returns(address){\n        address[] newLine;\n        for (uint8 i = 1; i < numWaiting; i++) {\n            newLine.push(line[i]);\n        }\n        address first = line[0];\n        line = newLine;\n\t\tstartTime = now;\n        numWaiting--;\n        return first;\n\t}\n\n\t/* Places `addr` in the first empty position in the queue */\n\tfunction enqueue(address addr) {\n        if (numWaiting < size) {\n\t\t    numWaiting = line.push(addr);\n\t\t}\n\t}\n\n    function () {}\n}\n",
  "sourcePath": "/Users/rachelye/Desktop/blockchaindev/sp18-midterm-p1/contracts/Queue.sol",
  "compiler": {
    "name": "solc",
    "version": "0.4.19+commit.c4cbbb05.Emscripten.clang"
  },
  "schemaVersion": "1.0.1",
  "updatedAt": "2018-03-08T23:32:26.211Z"
}